:020000040800F2
:10000000B806002091010008FF10000861100008E8
:10001000FD100008CB0400082713000800000000B2
:10002000000000000000000000000000291100088E
:10003000CD04000800000000011100082B11000889
:10004000AB010008AB010008AB010008AB010008E0
:10005000AB010008AB010008AB010008AB010008D0
:10006000AB010008AB010008AB010008AB010008C0
:10007000AB010008AB010008AB010008AB010008B0
:10008000AB010008AB010008AB010008AB010008A0
:10009000AB010008AB010008AB010008AB01000890
:1000A000AB010008AB010008AB010008AB01000880
:1000B000AB010008AB010008AB010008AB01000870
:1000C000AB010008AB010008AB010008AB01000860
:1000D000AB010008AB010008AB010008AB01000850
:1000E000AB010008AB010008AB01000800F002F80A
:1000F00000F03FF80AA090E8000C82448344AAF183
:100100000107DA4501D100F034F8AFF2090EBAE880
:100110000F0013F0010F18BFFB1A43F0010318473B
:10012000EC1200000C130000103A24BF78C878C10C
:10013000FAD8520724BF30C830C144BF04680C60ED
:10014000704700000023002400250026103A28BF35
:1001500078C1FBD8520728BF30C148BF0B60704739
:10016000642900F07D80002070471FB51FBD10B5C9
:1001700010BD00F070F91146FFF7F7FF01F0D4F859
:1001800000F08EF903B4FFF7F2FF03BC00F096F91C
:100190000948804709480047FEE7FEE7FEE7FEE71B
:1001A000FEE7FEE7FEE7FEE7FEE7FEE70448054957
:1001B000054A064B704700007F110008ED0000085B
:1001C000B8000020B8060020B8020020B8020020C5
:1001D0000FB41CB5074B06AA7B44694600900598EE
:1001E00000F021F90020694600F030F91CBC5DF8F0
:1001F00014FB0000710200002DE9F0410E46044698
:10020000002020622046E168884730B3252805D0C9
:10021000D4E901219047206A401CF2E7E1682046BA
:1002200000278847050018D0A5F14100192802D8F9
:1002300020354FF400673246294620462760FFF7F5
:100240008FFF40B1012804D0F61D26F007060836BE
:10025000D8E7361DD6E72846DAE7206ABDE8F08100
:100260002DE9F0410646002410687529314616A58F
:1002700010D0AFF30080002802DA404213A507E057
:1002800031688A0701D512A502E0490704D511A5F6
:10029000012401E0AFF3008000210A2206F12407C7
:1002A00009E0B0FBF2FCB0FBF2F302FB1C003030C3
:1002B00078541846491C0028F3D123462A46304674
:1002C000BDE8F04100F051B8000000002D00000032
:1002D0002B0000002000000010B5431C02E010F8C5
:1002E000011B71B18107FAD14FF0013202C88C1A9B
:1002F0008C4314EAC211F9D0C01A0A0603D0C01EFA
:1003000010BDC01A10BD0A0401D0801E10BD090224
:10031000FCD0401E10BD4FF0000200B513469446BD
:100320009646203922BFA0E80C50A0E80C50B1F14D
:100330002001BFF4F7AF090728BFA0E80C5048BF61
:100340000CC05DF804EB890028BF40F8042B08BFFF
:10035000704748BF20F8022B11F0804F18BF00F8FB
:10036000012B70477047704770472DE9F0470D46E5
:1003700099469246044600F124080168880604D58F
:10038000E06921F01001216000E00120A84201DDB8
:10039000471B00E00027A1697A1902EB0900081A3F
:1003A000A0612078C00602D42046AFF3008000266A
:1003B00008E0D4E901211AF806009047206A401CA1
:1003C000761C20624E45F4DB2078C0060AD5204614
:1003D000AFF3008006E0D4E9012130209047206A85
:1003E000401C2062381EA7F10107F4DC07E0D4E9C5
:1003F000012118F805009047206A401C2062281E41
:10040000A5F10105F3DC2046AFF30080207800065B
:1004100002D50220BDE8F0870120FBE701694A1CF4
:1004200002610878704700B58FB0CDE90131002135
:10043000059105497944CDE9031011466846FFF757
:10044000DBFE0FB000BD0000E5FFFFFF0A6802F809
:10045000010B0A607047754600F02CF8AE460500A7
:100460006946534620F00700854618B020B5FFF7CF
:100470009DFEBDE820404FF000064FF000074FF012
:1004800000084FF0000B21F00701AC46ACE8C009B2
:10049000ACE8C009ACE8C009ACE8C0098D467047BB
:1004A00010B50446AFF300802046BDE81040FFF7CA
:1004B00069BE00000048704758000020014918201C
:1004C000ABBEFEE7260002007047FEE7704772B63B
:1004D000FEE7000070B5044600F01CF90546B4F1D3
:1004E000FF3F02D004480078044400F013F9401B99
:1004F000A042FAD370BD0000040000202DE9F84F9F
:100500004FF0000C00230A68002A7DD0DFF8DC8160
:100510000F27A8F1040A08F10409AAF1040B01222B
:1005200002FA0CF60A683240B2426ED1DFF8C0E13E
:100530004C68A4EB0E0574452BD00DDC032C34D095
:1005400005DC34B3012C19D0022C2FD11BE0112C67
:1005500016D0122C2AD119E0B5F5881F19D006DC67
:10056000B5F5803F15D0B5F5801F1FD111E0B5F569
:10057000001F0ED0B5F5041F18D10AE0CB6815E0B6
:10058000CB681B1D12E0CB6808330FE0CB680C333F
:100590000CE08B6823B1012B04D00823466105E0F1
:1005A000042303E00823066100E00023B2F5807F06
:1005B00001D2054601E000F1040502D24FEA8C04A5
:1005C00003E0ACF108044FEA84042E6807FA04FE45
:1005D00026EA0E0603FA04F446EA04042C604C688A
:1005E00014F0805F79D0434CA56945F00105A56101
:1005F000A46904F0010400942CF0030404F1804485
:1006000004F58034A66801E06EE066E04FEA8C7580
:100610004FEA157507FA05FE26EA0E0EA0F1804690
:10062000B6F584361ED0A0F18046B6F586361BD0CE
:10063000A0F18046B6F5883618D0A0F18046B6F510
:100640008A3615D0042606FA05F545EA0E05A5609A
:100650004C6814F4801F0DD0D8F800401443C8F83B
:1006600000400CE00026EEE70126ECE70226EAE770
:100670000326E8E7D8F800409443C8F800404C68E7
:1006800014F4001F05D0D9F800401443C9F8004005
:1006900004E0D9F800409443C9F800404C6814F4D1
:1006A000003F05D0DAF800401443CAF8004004E0E7
:1006B000DAF800409443CAF800404C6814F4803FD4
:1006C00005D0DBF800402243CBF8002005E0DBF842
:1006D000004024EA0202CBF800200CF1010C0A6869
:1006E00032FA0CF27FF41BAFBDE8F88F080401402A
:1006F00000001110001002408068084201D0012063
:10070000704700207047002A01D00161704709043A
:1007100001617047014880687047000004000020B4
:10072000024881680278114481607047040000200B
:1007300010B50748016841F010010160032000F086
:100740007DF80F2000F006F800F026F8002010BD1C
:100750000020024070B504460D4D4FF47A712878A0
:10076000B1FBF0F00B490968B1FBF0F000F09CFB25
:1007700008B1012070BD102C07D200222146501E66
:1007800000F028F86C60002070BD012070BD0000F2
:1007900004000020000000200C4808B5816941F0E9
:1007A00001018161816901F001010091C16941F09C
:1007B0008051C161C06900F08050009004484168D8
:1007C00021F0E06141F08061416008BD001002400D
:1007D0000000014010B4184B1B68C3F30223C3F19F
:1007E000070CBCF1040F01D94FF0040C1C1D072CA1
:1007F00001D2002300E0DB1E012404FA0CFCACF162
:10080000010C0CEA0101994004FA03F35B1E1A4043
:100810001143002806DB00F1E020090180F80014F4
:1008200010BC704700F00F0000F1E020090180F8D3
:10083000141D10BC704700000CED00E000F0070034
:10084000064A11684FF6FF03194041EA002040F0C4
:10085000FD7040F080601060704700000CED00E01B
:100860002DE9F04704460D46002C17D0DFF85C81D7
:10087000D8F8000000F00700A84212D2D8F8000013
:1008800020F007002843C8F80000D8F8000000F066
:100890000700A84205D00120BDE8F0870120BDE88F
:1008A000F08720684A4E10F0020F14D010F0040FA9
:1008B00003D0706840F4E0607060207810F0080F9A
:1008C00003D0706840F460507060706820F0F001F0
:1008D000A06808437060207810F0010F3AD060687B
:1008E000012806D002280BD0316811F0020F27D062
:1008F0000AE0316811F4003F06D10120BDE8F0871D
:10090000316811F0007F18D0716821F003010843AD
:100910007060FFF7FFFE07467068616800F00C002A
:10092000B0EB810F16D041F28839FFF7F3FEC01B00
:10093000484508D90320BDE8F0870120BDE8F087CD
:100940000120BDE8F0877068616800F00C00B0EB32
:10095000810FEAD1D8F8000000F00700A8420FD9B3
:10096000D8F8000020F007002843C8F80000D8F8A5
:10097000000000F00700A84202D00120BDE8F08787
:10098000207810F0040F05D07068E16820F4E06072
:1009900008437060207810F0080F06D07068216955
:1009A00020F4605040EAC100706000F03FF87168C8
:1009B000084AC1F30311515CC84007490860074861
:1009C0000068FFF7C7FE0020BDE8F0870020024066
:1009D00000100240E0130008000000200800002082
:1009E00001480068704700000000002000B5FFF7D4
:1009F000F7FF04494968044AC1F30221515CC84029
:100A000000BD000000100240F013000800B5FFF721
:100A1000E7FF04494968044AC1F3C221515CC84058
:100A200000BD000000100240F01300080E4B596892
:100A30000E4801F00C02042A11D0082A0FD10C48EC
:100A4000C1F38342805C11F4803F09D05968094AA0
:100A5000C1F34041515C054A5043B0FBF1F070478F
:100A600005494843704700000010024000127A0018
:100A7000FA130008F813000800093D002DE9F84FAB
:100A80000446002C0FD02078F84D10F0010F6CD0E8
:100A9000686800F00C0004280CD0686800F00C00B6
:100AA000082803D010E00120BDE8F88F686810F432
:100AB000803F09D0286810F4003F56D060680028B5
:100AC00053D10120BDE8F88F6068B0F5803F15D0A4
:100AD000C8B1B0F5A02F1FD0286820F4803028605E
:100AE000286820F480202860606858B3FFF712FE61
:100AF0000646286810F4003F17D036E0286840F416
:100B000080302860F0E7286820F48030286028686A
:100B100020F480202860E7E7286840F480202860DF
:100B2000286840F480302860DEE7FFF7F3FD801B83
:100B3000642802D90320BDE8F88F286810F4003F2C
:100B4000F3D012E0FFF7E6FD0646286810F4003FF8
:100B50000BD0FFF7DFFD801B642802D90320BDE81E
:100B6000F88F286810F4003FF3D12078C04F10F0C0
:100B7000020F4FF0010B4FF0000854D0686810F0DE
:100B80000C0F14D0686800F00C00082803D16868C6
:100B900010F4803F0BD0206978B3C7F800B0FFF79E
:100BA000B9FD0646286810F0020F12D01DE0286833
:100BB00010F0020F05D02069012802D00120BDE805
:100BC000F88F2868616920F0F80040EAC1002860C9
:100BD00029E0FFF79FFD801B022802D90320BDE812
:100BE000F88F286810F0020FF3D02868616920F0B0
:100BF000F80040EAC100286015E0FFE7C7F8008070
:100C0000FFF788FD0646286810F0020F0BD0FFF7AB
:100C100081FD801B022802D90320BDE8F88F2868D7
:100C200010F0020FF3D1207810F0080F30D0914867
:100C3000A169C1B1C0F800B0FFF76CFD0646686A53
:100C400010F0020F0BD1FFF765FD801B022802D9BF
:100C50000320BDE8F88F686A10F0020FF3D001207E
:100C600000F050FA14E0C0F80080FFF753FD06468C
:100C7000686A10F0020F0BD0FFF74CFD801B0228B2
:100C800002D90320BDE8F88F686A10F0020FF3D193
:100C9000207810F0040F6FD00026E86910F0805F14
:100CA00008D1E86940F08050E861E86900F08050C0
:100CB00000900126DFF8C0A1DAF8000010F4807F70
:100CC0001BD1DAF8000040F48070CAF80000FFF78A
:100CD00021FD8146DAF8000010F4807F0DD1FFF786
:100CE00019FDA0EB0900642802D90320BDE8F88FA4
:100CF000DAF8000010F4807FF1D0E068012816D007
:100D0000D0B1052821D0286A20F001002862286A85
:100D100020F004002862E06841F2883A68B3FFF7E7
:100D2000F9FC8146286A10F0020F17D03AE0286AD1
:100D300040F001002862EEE7286A20F001002862F6
:100D4000286A20F004002862E5E7286A40F00400E1
:100D50002862286A40F001002862DCE7FFF7DAFC2D
:100D6000A0EB0900504502D90320BDE8F88F286A9E
:100D700010F0020FF2D015E01AE0FFE7FFF7CAFC0F
:100D80008146286A10F0020F0CD0FFF7C3FCA0EBDD
:100D90000900504502D90320BDE8F88F286A10F0F9
:100DA000020FF2D1012E03D1E86920F08050E861F2
:100DB000E069E8B3696801F00C0108295ED00228F7
:100DC00010D0C7F86080FFF7A5FC0446286810F033
:100DD000007F66D0FFF79EFC001B022841D903204C
:100DE000BDE8F88FC7F86080FFF794FC06462868D6
:100DF00010F0007F0BD0FFF78DFC801B022802D97A
:100E00000320BDE8F88F286810F0007FF3D1206A36
:100E1000B0F5803F05D16868A16820F40030084330
:100E20006860616A206A0843696821F4741100E00F
:100E300037E008436860C7F860B0FFF76BFC044612
:100E4000286810F0007F2CD1FFF764FC001B0228FB
:100E500002D90320BDE8F88F286810F0007FF3D096
:100E60001FE0286810F0007FB4D11AE000100240A3
:100E700000004242800442420070004001280DD030
:100E80006868226A00F48031914204D1616A00F4FA
:100E90007010884205D00120BDE8F88F0120BDE820
:100EA000F88F0020BDE8F88F401EB0F1807F01D39D
:100EB000012070474FF0E0214861044AF020107093
:100EC00000208861072008610020704723ED00E0C2
:100ED00070B50446002C04D094F84100002510B1F0
:100EE00006E0012070BD84F84050204600F024F850
:100EF000242084F841002068C16821F40051C160B9
:100F0000204600F065F92068016921F490410161F3
:100F10002068416921F02A0141612068C16841F4DB
:100F20000051C1606564202084F8410084F84200CB
:100F30006563002070BD000030B585B000240094CA
:100F400001940294039400681449884224D11448FF
:100F5000816941F480418161816901F4804104919A
:100F6000816941F00401816180690E4D00F0040047
:100F700004904FF400700090022001900320039031
:100F800069462846FFF7BAFA2815CDE900046946F4
:100F900028460294FFF7B2FA05B030BD0038014090
:100FA00000100240000801402DE9F84304460E46B7
:100FB00015461F4694F84100202802D00220BDE8C3
:100FC000F8837EB175B100206064212084F841006F
:100FD000FFF7A0FB8146A584E584A068B0F5805F9B
:100FE00003D004E00120BDE8F883206990B13546C4
:100FF0000026E08C4FF02008C8B14B46002280212B
:101000002046009700F048F930B184F84180032071
:10101000BDE8F8830025ECE7B5B121682878486081
:101020006D1CE08C401EE084E08C0028E5D14B462E
:10103000002240212046009700F02EF958B184F894
:1010400041800320BDE8F88330882168C0F30800A0
:101050004860B61CE5E784F841800020BDE8F883CD
:10106000FEE7000030B585B00024144800940194D8
:1010700002940394816941F0040181618069104DFB
:1010800000F00400049022467B212846FFF73BFB3A
:101090007B2000900120CDE90104022003906946E5
:1010A0002846FFF72BFA8420CDE90004694628463C
:1010B0000294FFF723FA05B030BD00000010024093
:1010C000000801400C4810B50A4901604FF4E131B5
:1010D0004160002181600C22C160C0E9041281617D
:1010E000C161FFF7F5FE002803D0BDE81040FFF70F
:1010F000EEB910BD0038014010000020FEE7FEE709
:101100007047000081B007494FF4FA520968B1FBFB
:10111000F2F14843009000BF0098411E0091FAD2BE
:1011200001B07047000000207047FFF7F9BA10B512
:1011300090B028216846FFF7EEF814210AA8FFF7BF
:10114000EAF802200090012004901020002405906D
:1011500007946846FFF792FC08B172B6FEE70F20CD
:10116000CDE90A040C940D9400210AA80E94FFF70F
:1011700077FB002801D072B6FEE710B010BD7047B3
:1011800001680C3151E8002F22F4907241E80023ED
:10119000002BF5D10168143151E8002F22F0010233
:1011A00041E80023002BF5D1016B012909D1016829
:1011B0000C3151E8002F22F0100241E80023002BEF
:1011C000F5D1202180F84210002101637047000012
:1011D00070B5044620680169E26821F4405111436A
:1011E00001612169A0680843616901432068C26800
:1011F00022F4037222F4A0521143C16020684169B5
:10120000A26921F44071114341612068A0F180413D
:10121000B1F59C313AD0FFF7E9FB00EBC00101EBDF
:10122000001061681B4A8900B0FBF1F3A2FB035375
:10123000B0FBF1FC5B096FF018056B430CEB83030B
:101240004FF0320C0CEB0313A2FB03535B0903F0CA
:10125000F005B0FBF1F3A2FB03635B0905EB03139D
:10126000B0FBF1F5B0FBF1F0A2FB001040096FF00C
:101270001801484305EB80000CEB0010A2FB0010A6
:101280002168C0F343101844886070BDFFF7BEFBAF
:10129000C3E700001F85EB512DE9F8430446089E83
:1012A0000D46174698462068006835EA000028D0A9
:1012B0000020B84232D1B6F1FF3F27D0FFF72AFA1B
:1012C000A0EB0800B0421ED8EEB12068C16811F052
:1012D000040F1BD0802D19D0402D17D0016811F0BC
:1012E000080F13D000252168096840680090204647
:1012F000FFF746FF0820606484F840500120BDE8F5
:10130000F8830120D5E70320BDE8F8832068006852
:1013100035EA000005D00020B842CCD00020BDE85E
:10132000F8830120F8E7FEE786B0FFF701FAFFF740
:10133000FEFEFFF797FEFFF7C5FE4FF4FA7400BFFD
:1013400000F01CF8024608A16846FEF741FF684617
:10135000FEF7C2FF82B2642369460748FFF724FE06
:101360002046FFF7B7F8EBE7373448433136353AD4
:101370002025640D0A000000100000202DE9F04136
:10138000164D0024224601212846FFF7BCF9012012
:10139000FFF7A0F8012211462846FFF7B4F900260E
:1013A0004FF6FF7707EA440404212846FFF7A4F923
:1013B00008B144F00104012202212846FFF7A3F9F5
:1013C0000120FFF787F8002202212846FFF79BF94A
:1013D000761C102EE6DB2046BDE8F08100080140B7
:1013E00000000000000000000102030406070809D5
:1013F00000000000010203040102020304050607C5
:1014000008090A0B0C0D0E0F101000002C14000818
:101410000000002010000000280100083C14000813
:1014200010000020A80600004401000800127A0005
:0C1430000100000010000000000000009F
:04000005080000ED02
:00000001FF
